:02000002D0002C
:1040000000400D0044540D00000006000C000501A6
:084010000401BD0B00000000DB
:04401800F8510D004E
:10401C0009480A49884208B505D0094A824202D0AB
:10402C00121A01F0A1F80748074A0021121A01F0F0
:10403C00A9F8014808BD00BFC8E50320B4530D0022
:10404C0030E6032030E60320F0E7032070B5074E7E
:10405C00074C00F0EFFCA41BA4080025A54200D1DE
:10406C0070BD56F8043B98470135F7E788530D00AF
:10407C00AC530D0000F038B808B500F055F8BDE8A9
:10408C00084000F099BC00F0A7BA00F0ADBA007877
:10409C00B0FA80F04009704701230370704710B5E7
:1040AC000446006808B100F09FFA204610BD0000DD
:1040BC0013B50B4C2178BFF35B8F11F001010BD1C1
:1040CC0020460191FFF7E3FF019928B1054800F064
:1040DC00DFFA2046FFF7E0FF024802B010BD00BF38
:1040EC0034E6032038E6032008B50121052000F052
:1040FC00B9FFFFF7DDFF0522002100F0D3FAFFF72F
:10410C00D7FF084A012100F01FFBFFF7D1FF012167
:10411C0000F0DEFAFFF7CCFFBDE80840002100F00C
:10412C00EABA00BF40420F0030B5294C237885B065
:10413C00254613B32A230021052000258DF80C30C9
:10414C0000F0A1FFFFF7B4FF012302AA03A9009519
:10415C0000F02CFB0121052000F095FF9DF80830A4
:10416C00013BDBB2FD2B06D800F06AFD9DF8081070
:10417C0000F0ABFB257005B030BD00F061FD00F028
:10418C0053FD0028F9D000F05BFD03681B699847CC
:10419C000028F8D000F054FD03685B6998470021B3
:1041AC00C4B205208DF80C4000F06DFFFFF780FFC6
:1041BC000023009302AA012303A900F0F7FA0121BE
:1041CC00052000F060FF3F2C04BF01232B70D2E7C9
:1041DC004CE6032038B50A4C0A4BA360002503209B
:1041EC002560A580A57100F06BF90749074A2046A8
:1041FC0000F0A2FF29460120BDE8384000F068B964
:10420C0040E603200000FFFFAB400D0030E603202A
:10421C0008B5024B1B689B68019308BD680203003C
:10422C0008B5024B1B68DB68019308BD68020300EC
:10423C0008B5024B1B689B68019308BD2C02030058
:10424C0008B5024B1B68DB68019308BD2C02030008
:10425C0008B5024B1B681B69019308BD2C020300B7
:10426C0008B5024B1B685B68019308BD180203007C
:10427C0008B5024B1B685B69019308BD180203006B
:10428C0008B5024B1B685B6C019308BD4802030028
:10429C0008B5024B1B689B6C019308BD48020300D8
:1042AC0008B5024B1B685B69019308BD64020300EF
:1042BC0008B5024B1B681B68019308BD3C02030048
:1042CC0008B5024B1B68DB68019308BD3C02030078
:1042DC0008B5024B1B681B69019308BD3C02030027
:1042EC0008B5024B1B685B69019308BD3C020300D7
:1042FC0008B5024B1B689B69019308BD3C02030087
:10430C0008B5024B1B68DB69019308BD3C02030036
:10431C0008B5024B1B681B6A019308BD3C020300E5
:10432C0008B5024B1B689B6A019308BD3C02030055
:10433C0008B5024B1B681B6A019308BD28020300D9
:10434C0008B5024B1B685B6A019308BD2802030089
:10435C0008B5024B1B689B6A019308BD2802030039
:10436C0008B5024B1B68DB6A019308BD28020300E9
:10437C0008B5024B1B681B6B019308BD2802030098
:10438C0008B5024B1B685B6B019308BD2802030048
:10439C0008B5024B1B681B6C019308BD2802030077
:1043AC0008B5024B1B689B68019308BD30020300E3
:1043BC0008B5024B1B68DB68019308BD3002030093
:1043CC0008B5024B1B681B69019308BD3002030042
:1043DC0008B5024B1B68DB69019308BD3002030072
:1043EC0008B5024B1B681B6A019308BD3002030021
:1043FC0008B5024B1B685B6A019308BD30020300D1
:10440C0008B5024B1B689B6A019308BD3002030080
:10441C0008B5024B1B68DB6A019308BD3002030030
:10442C0008B5024B1B689B6B019308BD300203005F
:10443C0008B5024B1B681B6C019308BD30020300CE
:10444C0008B5024B1B685B6C019308BD300203007E
:10445C0008B5024B1B681B68019308BD4C02030096
:10446C0008B5024B1B681B69019308BD4C02030085
:10447C0008B5024B1B685B69019308BD4C02030035
:10448C0008B5024B1B689B69019308BD4C020300E5
:10449C0008B5024B1B68DB69019308BD4C02030095
:1044AC0008B5024B1B681B6A019308BD4C02030044
:1044BC0008B5024B1B689B6A019308BD4C020300B4
:1044CC0008B5024B1B685B68019308BD2002030012
:1044DC0008B5024B1B68DB6A019308BD2002030080
:1044EC0008B5034B1B68D3F88830019308BD000056
:1044FC002002030008B5034B1B68D3F894300193DA
:10450C0008BD00002002030008B5024B1B685B6865
:10451C00019308BD4002030008B5024B1B689B6861
:10452C00019308BD4002030008B5024B1B68DB6811
:10453C00019308BD4002030008B5024B1B681B69C0
:10454C00019308BD4002030008B5024B1B685B6970
:10455C00019308BD4002030008B5024B1B689B6920
:10456C00019308BD4002030008B5024B1B68DB69D0
:10457C00019308BD4002030008B5024B1B681B6A7F
:10458C00019308BD4002030008B5024B1B681B6B6E
:10459C00019308BD4002030008B5024B1B685B6B1E
:1045AC00019308BD4002030008B5024B1B681B6C4D
:1045BC00019308BD4002030008B5024B1B685B6CFD
:1045CC00019308BD4002030008B5024B1B68DB6B6E
:1045DC00019308BD4402030008B5024B1B681B681D
:1045EC00019308BD1C02030008B5024B1B685B68F5
:1045FC00019308BD1C02030008B5024B1B685B6CE1
:10460C00019308BD1C020300002240681146FFF70D
:10461C00B3BF002240681146FFF7BEBF40680022BE
:10462C00FFF7B2BF4068002281F00101FFF79CBF89
:10463C00002340681A461946FFF78EBF00234068D6
:10464C001A461946FFF780BF002240681146FFF753
:10465C0073BF002240681146FFF75EBF406800221E
:10466C000221FFF761BF002340681A46FFF74CBFD9
:10467C00024B03225A60024A1A60704750E603202C
:10468C0014520D000021FFF7D3BE0021FFF7D8BE56
:10469C0010B5044608462170FFF79AFE00236360AC
:1046AC00204610BD13B504460078CDE90021FFF774
:1046BC00E9FFDDE90021034640B92078FFF7A8FEA9
:1046CC00207802B0BDE81040FFF7DFBF02B010BD8C
:1046DC0013B5044600780191FFF7D4FF019940B956
:1046EC002078FFF75DFE207802B0BDE81040FFF7A0
:1046FC00CCBF02B010BD13B5044600780191FFF792
:10470C00C1FF019940B92078FFF752FE207802B022
:10471C00BDE81040FFF7B9BF02B010BD400830B57E
:10472C001860002418688842E5B206D90134082CB8
:10473C0002D040081860F5E70725024B5B5D13704B
:10474C0030BD00BF48520D002DE9F04188B0002368
:10475C000446007802930E461746FFF793FF054672
:10476C0000BB94F800800146142203A800F00AFD57
:10477C000B232A4603A94046ADF80C30FFF738FE50
:10478C0004988DF8075002AB0DF1070207FB06F1F8
:10479C00FFF7C4FF20789DF80710FFF711FE207873
:1047AC00FFF773FF029808B0BDE8F08130B587B011
:1047BC0004460A9D00950078FFF722FE3DB920784B
:1047CC0002A9FFF72DFE9DF81430DB07F7D407B0D4
:1047DC0030BD000010B5094B094C022200201A60B4
:1047EC00084B2060A080A071A360FFF769FE2046F3
:1047FC00054A0649BDE8104000F09EBC64E6032063
:10480C0058E603200000FFFF30E60320AB400D000C
:10481C0010B50446006808B1FFF73AFD204610BDFC
:10482C0010B58368044613B103220146984720460D
:10483C0010BD000010B5064C002320462360FFF786
:10484C001FFD2046034A0449BDE8104000F074BC2B
:10485C0068E6032030E603201D480D00F8B5064637
:10486C000D468F180024BD420CD0336815F8011B7F
:10487C009B6830469847031E01DB1C44F3E7002C71
:10488C0008BF1C462046F8BD13B50446084659B16E
:10489C00019100F0A3FC23680199DB6802462046D5
:1048AC0002B0BDE81040184702B010BD03689B6809
:1048BC00184738B50D210546FFF7F8FF0A210446C5
:1048CC002846FFF7F3FF204438BD38B50546FFF7FF
:1048DC00EDFF04462846FFF7ECFF204438BD30B509
:1048EC008BB000238DF82430012A98BF0A2209AC22
:1048FC000D46B1FBF2F101FB125303F0FF03092B40
:10490C0094BF30333733DBB2AA4204F8013DEFD900
:10491C002146FFF7B9FF0BB030BD002340681A46A3
:10492C001946FFF711BE0000014B024A1A6070478E
:10493C006CE6032050520D00024B1A68024B1A60B1
:10494C00704700BFC8E5032070E6032010B504468D
:10495C00FFF766FF204610BD0348044A04490023B4
:10496C00836000F0E9BB00BF74E6032030E603204F
:10497C0059490D00014B1860704700BFCCE503206E
:10498C0008B50B4B43B100F05BF903681B69984702
:10499C00002801DDAFF30080064B43B100F0CEF9E7
:1049AC0003681B699847002801DDAFF3008008BD40
:1049BC00000000000000000008B5FFF7E1FFFFF762
:1049CC0057FC014B186008BDD4E703200248034A8A
:1049DC000349121A00F0C8BB00F4032004F40320AE
:1049EC00B0530D0007B5002300931A466FF0770102
:1049FC00FFF780FD03B05DF804FB000007B54388AA
:104A0C000A2B08D0502B0BD1094B1B684BB103B0B0
:104A1C005DF804EB1847FFF7E5FF03B05DF804FB06
:104A2C00002300931A466FF07701FFF763FDF4E75C
:104A3C0088E6032038B5124C1248134D0021FFF7BD
:104A4C00DBFD2368AB42114B0CBF012200221A7014
:104A5C0002D0FFF7BBFF2560FFF702FC044600F015
:104A6C0099FB0B4B13B12046AFF300800021084893
:104A7C00FFF7AAFDBDE8384006480021FFF730BD1E
:104A8C0000F4032081490D001E1C279A84E60320A4
:104A9C0000000000094A0D00704710B518210446AB
:104AAC0000F04FFB204610BDF0B5037D062B8DB0FA
:104ABC000E4600F104074FF0000412D000F1080577
:104ACC0015F8011D0A223046FFF709FFAF420444D6
:104ADC0019D0002CF4D02E213046FFF7E7FE044409
:104AEC00EEE72F236A4639460A208DF80040FFF77F
:104AFC00D7FB684600F072FB33680246DB686946F8
:104B0C0030469847044620460DB0F0BD10B5054B15
:104B1C000446112240F8043B002100F033FB2046F0
:104B2C0010BD00BF78520D000346074A10B543F87C
:104B3C00042B01F1100251F8044B43F8044B914241
:104B4C00F9D10A781A7010BD78520D0010B59DF885
:104B5C00084044EA032343EA024242EA0161042387
:104B6C004160037510BD000013B5054B0360CB7895
:104B7C0000938B784A780978FFF7E8FF02B010BDF4
:104B8C0078520D0041747047704708B50021007CC5
:104B9C00FFF776FC40EAE07008BD08B50121007C07
:104BAC00FFF76EFC40EAE07008BD08B5007CFFF72B
:104BBC005FFC20EAE07008BD08B5007CFFF750FCF4
:104BCC0020EAE07008BD13B50446007C0191FFF7A4
:104BDC004FFC0028019901DC607C20B1207CFFF7A0
:104BEC0057FC20EAE07002B010BD007CFFF758BC07
:104BFC0010B51421044600F0A4FA204610BD0000A4
:104C0C0010B54FF47A73044608460021C4E9011329
:104C1C00044B23600123207463741146FFF718FCC6
:104C2C00204610BD8C520D00007CFFF741BC10B526
:104C3C0014220446002100F0A5FA204610BD000005
:104C4C0010B5104C88B003A8FFF7F1FF2178BFF323
:104C5C005B8F11F0010111D120460191FFF717FA7A
:104C6C00019958B103AA0848FFF7CAFF2046FFF77D
:104C7C0013FA064A0649044800F05EFA024808B0E6
:104C8C0010BD00BF8CE6032090E6032030E6032025
:104C9C00954B0D0070474174704708B5007CFFF7C9
:104CAC003FFB20EAE07008BD08B5007CFFF710FB65
:104CBC0020EAE07008BD08B5007CFFF719FB40EA5C
:104CCC00E07008BD08B5007CFFF70AFB40EAE07015
:104CDC0008BD007CFFF714BB37B5457C04462DB1ED
:104CEC00207C03B0BDE83040FFF7EABA007C0191AC
:104CFC00FFF716FB00280199F2DC284603B030BD03
:104D0C0010B51421044600F01CFA204610BD00001A
:104D1C0010B54FF0000C0446084611464FF47A7259
:104D2C00C4E901C2044A22600122207462741A464A
:104D3C00FFF7BEFA204610BDBC520D0013B50E4C49
:104D4C002178BFF35B8F11F0010112D12046019144
:104D5C00FFF79DF9019960B1084A094B0948FFF723
:104D6C00D7FF2046FFF798F9074A0849054800F095
:104D7C00E3F9044802B010BDA4E60320A8E6032022
:104D8C002CE70320B0E7032030E60320A14C0D00F4
:104D9C007047F8B5064615460C468F18BC4206D02F
:104DAC00336814F8011B9B6830469847F6E7284691
:104DBC00F8BD007C0022FFF7BBBA007C0021FFF796
:104DCC00BFBA007C0021FFF7C3BA007C0021FFF7BB
:104DDC00C7BA007C0021FFF7CBBA10B514210446EA
:104DEC0000F0AFF9204610BD10B54FF47A730446AD
:104DFC0008460021C4E90113034B236020741146BB
:104E0C00FFF7C6FA204610BDEC520D000022406898
:104E1C001146FFF791BB002240681146FFF7ACBB6F
:104E2C00002240681146FFF7B7BB40680022FFF72D
:104E3C00ABBB4068002281F00101FFF795BB00235A
:104E4C0040681A461946FFF787BB00224068114696
:104E5C00FFF762BB406800220221FFF765BB00230D
:104E6C0040681A46FFF750BB024B04225A60024AB4
:104E7C001A607047C4E7032014530D0000234068E8
:104E8C001A46FFF741BB406800220221FFF74CBBDA
:104E9C00002240681146FFF73FBB002240681146D4
:104EAC00FFF74ABB002340681A461946FFF74CBB74
:104EBC00002340681A461946FFF74EBB4068002194
:104ECC00FFF772BB40680021FFF776BB40680022F9
:104EDC0081F00101FFF748BB40680022FFF754BB8B
:104EEC00002240681146FFF757BB0022406811466C
:104EFC00FFF742BB2DE9F043002495B016460D4652
:104F0C000746FFF703FE214618220EA8009400F076
:104F1C0039F94023CDE90C3421466B460CAA3046B6
:104F2C00FFF77EF9044600284CD10246012168683F
:104F3C00FFF702FB0221804622466868FFF7FCFA65
:104F4C00009E81462146002E3CD000293AD1736840
:104F5C00022B03D00A2B11D0F669F4E7B8F1000F3D
:104F6C000AD0716906A8043107ADFFF7FDFD0FCD1E
:104F7C003C1D0FC42B6823704146EDE7B9F1000FBF
:104F8C0001D14946E8E77469102201A800F0FAF84B
:104F9C0006238DF8143001AD04F108031834186899
:104FAC0059682A4603C20833A3421546F7D101A912
:104FBC0006A807ADFFF7B8FD0FCD3C1D0FC42B683D
:104FCC002370DEE70098FFF723F9384615B0BDE8EB
:104FDC00F0830000024B034A1A6000225A607047AB
:104FEC00CCE7032050530D00232813B502D9002021
:104FFC0002B010BDA0F10B03022B1AD8174C21786C
:10500C00BFF35B8F11F001010BD120460191FFF72B
:10501C003EF8019928B11248FFF73AFB2046FFF7FA
:10502C003BF80F4B1878FFF7DBF90028DFD1012094
:10503C00DEE7012809D800F057F80021007CFFF7C3
:10504C009FF980F00100C0B2D2E709380128EED8F0
:10505C00FFF774FE007CFFF75BF9F2E734E6032000
:10506C0038E60320232838B504460D460AD8FF2914
:10507C0008D0FFF7B9FF28B129462046BDE83840D3
:10508C00FFF7D6B838BD38B504460D46FFF7D8F84B
:10509C00FF2810D0062804D84D2323FA00F0C307AC
:1050AC0009D42046FFF7A0FF28B129462046BDE8C9
:1050BC003840FFF7CDB838BD38B5002320254380E4
:1050CC00142304460380856005610649284600F0D8
:1050DC003AF804496060284600F035F8E060204654
:1050EC0038BD00BF84530D0030B50F4D2978BFF388
:1050FC005B8F11F0010487B013D12846FEF7C7FF70
:10510C0078B101A8FFF7D8FF01AA21460748FFF79D
:10511C006BFE2846FEF7C0FF054A0649034800F01F
:10512C000BF8024807B030BDD8E70320DCE70320BA
:10513C0030E603209D4D0D000B460146184600F04D
:10514C0005B8FEF7A2BFFEF79EBF000010B5054CD8
:10515C0013462CB10A4601460220AFF3008010BD65
:10516C002046FCE7000000000A44914200F1FF33A6
:10517C0000D1704710B511F8014B03F8014F914263
:10518C00F9D110BD02440346934200D1704703F895
:10519C00011BF9E738B50D4B1D68AB6B04467BB9A9
:1051AC001820FFF719FA0A4A0A4BA863C0E9002332
:1051BC00094B83600B23838101220023C0E9042364
:1051CC00AB6B00221C615A6138BD00BFCCE50320DB
:1051DC000E33CDAB34126DE6ECDE0500034613F84E
:1051EC00012B002AFBD1181A013870471D400D0005
:1051FC0059400D0081400D0085400D00000000005D
:10520C00000000000000000073460D0069460D0010
:10521C005F460D0055460D0049460D003D460D00FC
:10522C00C94E0D00D14E0D0031460D0029460D0022
:10523C001F460D0015460D00014F0D0000081018FB
:10524C00202830386170700025592D256D2D25646E
:10525C005425483A254D3A2553257A0061736374D9
:10526C00696D65000000000000000000B54A0D00EB
:10527C00A54A0D00A74A0D00000000000000000028
:10528C00954B0D00FD4B0D00D34B0D0069480D00E7
:10529C00C54B0D00974B0D00A74B0D00F74B0D00A8
:1052AC00B74B0D00914B0D000000000000000000FA
:1052BC00A14C0D000D4D0D00E54C0D0069480D0085
:1052CC00B54C0D00D14C0D00C34C0D00DF4C0D0046
:1052DC00A34C0D00A74C0D000000000000000000C6
:1052EC009D4D0D00E74D0D00BF4D0D009F4D0D0068
:1052FC00C74D0D00CF4D0D00D74D0D00DF4D0D00EE
:10530C0000000000000000006B4E0D00614E0D000F
:10531C00574E0D00194E0D0027490D004B4E0D0038
:10532C00C94E0D00D14E0D003F4E0D00374E0D00F5
:10533C002D4E0D00234E0D00014F0D0000000000FE
:10534C0000000000894E0D00934E0D009D4E0D0087
:10535C00A74E0D00B14E0D00BD4E0D00C94E0D00F7
:10536C00D14E0D00D94E0D00E54E0D00ED4E0D0049
:10537C00F74E0D00014F0D0000000000E1410D0043
:10538C007D460D00E1470D0041480D0035490D00EB
:10539C0045490D0065490D00754E0D00E14F0D009E
:0453AC0000000000FD
:0453B00000000000F9
:1053B40068520D00D0E5032000000000000000004A
:1053C40000000000000000000000000000000000D9
:1053D40000000000000000000000000000000000C9
:1053E40000000000000000000000000000000000B9
:1053F40000000000000000000000000000000000A9
:105404000000000000000000000000000000000098
:08541400000000000000000090
:10541C00FFFFFFFF00000102030405060708090A4D
:10542C000B0C0D0E0F101112131415161718191A48
:08543C001B1C1D1E1F2028008F
:045444007856341250
:04000003D000401CCD
:00000001FF
